{
  "_format": "hh-sol-artifact-1",
  "contractName": "HydrogenCredits",
  "sourceName": "contracts/HydrogenCredits.sol",
  "abi": [
    {
      "inputs": [
        {
          "internalType": "address",
          "name": "_verifier",
          "type": "address"
        }
      ],
      "stateMutability": "nonpayable",
      "type": "constructor"
    },
    {
      "inputs": [
        {
          "internalType": "address",
          "name": "spender",
          "type": "address"
        },
        {
          "internalType": "uint256",
          "name": "allowance",
          "type": "uint256"
        },
        {
          "internalType": "uint256",
          "name": "needed",
          "type": "uint256"
        }
      ],
      "name": "ERC20InsufficientAllowance",
      "type": "error"
    },
    {
      "inputs": [
        {
          "internalType": "address",
          "name": "sender",
          "type": "address"
        },
        {
          "internalType": "uint256",
          "name": "balance",
          "type": "uint256"
        },
        {
          "internalType": "uint256",
          "name": "needed",
          "type": "uint256"
        }
      ],
      "name": "ERC20InsufficientBalance",
      "type": "error"
    },
    {
      "inputs": [
        {
          "internalType": "address",
          "name": "approver",
          "type": "address"
        }
      ],
      "name": "ERC20InvalidApprover",
      "type": "error"
    },
    {
      "inputs": [
        {
          "internalType": "address",
          "name": "receiver",
          "type": "address"
        }
      ],
      "name": "ERC20InvalidReceiver",
      "type": "error"
    },
    {
      "inputs": [
        {
          "internalType": "address",
          "name": "sender",
          "type": "address"
        }
      ],
      "name": "ERC20InvalidSender",
      "type": "error"
    },
    {
      "inputs": [
        {
          "internalType": "address",
          "name": "spender",
          "type": "address"
        }
      ],
      "name": "ERC20InvalidSpender",
      "type": "error"
    },
    {
      "inputs": [
        {
          "internalType": "address",
          "name": "owner",
          "type": "address"
        }
      ],
      "name": "OwnableInvalidOwner",
      "type": "error"
    },
    {
      "inputs": [
        {
          "internalType": "address",
          "name": "account",
          "type": "address"
        }
      ],
      "name": "OwnableUnauthorizedAccount",
      "type": "error"
    },
    {
      "anonymous": false,
      "inputs": [
        {
          "indexed": true,
          "internalType": "address",
          "name": "owner",
          "type": "address"
        },
        {
          "indexed": true,
          "internalType": "address",
          "name": "spender",
          "type": "address"
        },
        {
          "indexed": false,
          "internalType": "uint256",
          "name": "value",
          "type": "uint256"
        }
      ],
      "name": "Approval",
      "type": "event"
    },
    {
      "anonymous": false,
      "inputs": [
        {
          "indexed": true,
          "internalType": "address",
          "name": "producer",
          "type": "address"
        },
        {
          "indexed": false,
          "internalType": "uint256",
          "name": "amount",
          "type": "uint256"
        }
      ],
      "name": "CreditsIssued",
      "type": "event"
    },
    {
      "anonymous": false,
      "inputs": [
        {
          "indexed": true,
          "internalType": "address",
          "name": "holder",
          "type": "address"
        },
        {
          "indexed": false,
          "internalType": "uint256",
          "name": "amount",
          "type": "uint256"
        }
      ],
      "name": "CreditsRetired",
      "type": "event"
    },
    {
      "anonymous": false,
      "inputs": [
        {
          "indexed": true,
          "internalType": "address",
          "name": "previousOwner",
          "type": "address"
        },
        {
          "indexed": true,
          "internalType": "address",
          "name": "newOwner",
          "type": "address"
        }
      ],
      "name": "OwnershipTransferred",
      "type": "event"
    },
    {
      "anonymous": false,
      "inputs": [
        {
          "indexed": true,
          "internalType": "address",
          "name": "from",
          "type": "address"
        },
        {
          "indexed": true,
          "internalType": "address",
          "name": "to",
          "type": "address"
        },
        {
          "indexed": false,
          "internalType": "uint256",
          "name": "value",
          "type": "uint256"
        }
      ],
      "name": "Transfer",
      "type": "event"
    },
    {
      "anonymous": false,
      "inputs": [
        {
          "indexed": true,
          "internalType": "address",
          "name": "oldVerifier",
          "type": "address"
        },
        {
          "indexed": true,
          "internalType": "address",
          "name": "newVerifier",
          "type": "address"
        }
      ],
      "name": "VerifierChanged",
      "type": "event"
    },
    {
      "inputs": [
        {
          "internalType": "address",
          "name": "owner",
          "type": "address"
        },
        {
          "internalType": "address",
          "name": "spender",
          "type": "address"
        }
      ],
      "name": "allowance",
      "outputs": [
        {
          "internalType": "uint256",
          "name": "",
          "type": "uint256"
        }
      ],
      "stateMutability": "view",
      "type": "function"
    },
    {
      "inputs": [
        {
          "internalType": "address",
          "name": "spender",
          "type": "address"
        },
        {
          "internalType": "uint256",
          "name": "value",
          "type": "uint256"
        }
      ],
      "name": "approve",
      "outputs": [
        {
          "internalType": "bool",
          "name": "",
          "type": "bool"
        }
      ],
      "stateMutability": "nonpayable",
      "type": "function"
    },
    {
      "inputs": [
        {
          "internalType": "address",
          "name": "account",
          "type": "address"
        }
      ],
      "name": "balanceOf",
      "outputs": [
        {
          "internalType": "uint256",
          "name": "",
          "type": "uint256"
        }
      ],
      "stateMutability": "view",
      "type": "function"
    },
    {
      "inputs": [],
      "name": "decimals",
      "outputs": [
        {
          "internalType": "uint8",
          "name": "",
          "type": "uint8"
        }
      ],
      "stateMutability": "view",
      "type": "function"
    },
    {
      "inputs": [
        {
          "internalType": "address",
          "name": "producer",
          "type": "address"
        },
        {
          "internalType": "uint256",
          "name": "amount",
          "type": "uint256"
        }
      ],
      "name": "issueCredits",
      "outputs": [],
      "stateMutability": "nonpayable",
      "type": "function"
    },
    {
      "inputs": [],
      "name": "name",
      "outputs": [
        {
          "internalType": "string",
          "name": "",
          "type": "string"
        }
      ],
      "stateMutability": "view",
      "type": "function"
    },
    {
      "inputs": [],
      "name": "owner",
      "outputs": [
        {
          "internalType": "address",
          "name": "",
          "type": "address"
        }
      ],
      "stateMutability": "view",
      "type": "function"
    },
    {
      "inputs": [],
      "name": "renounceOwnership",
      "outputs": [],
      "stateMutability": "nonpayable",
      "type": "function"
    },
    {
      "inputs": [
        {
          "internalType": "uint256",
          "name": "amount",
          "type": "uint256"
        }
      ],
      "name": "retireCredits",
      "outputs": [],
      "stateMutability": "nonpayable",
      "type": "function"
    },
    {
      "inputs": [
        {
          "internalType": "address",
          "name": "_newVerifier",
          "type": "address"
        }
      ],
      "name": "setVerifier",
      "outputs": [],
      "stateMutability": "nonpayable",
      "type": "function"
    },
    {
      "inputs": [],
      "name": "symbol",
      "outputs": [
        {
          "internalType": "string",
          "name": "",
          "type": "string"
        }
      ],
      "stateMutability": "view",
      "type": "function"
    },
    {
      "inputs": [],
      "name": "totalSupply",
      "outputs": [
        {
          "internalType": "uint256",
          "name": "",
          "type": "uint256"
        }
      ],
      "stateMutability": "view",
      "type": "function"
    },
    {
      "inputs": [
        {
          "internalType": "address",
          "name": "to",
          "type": "address"
        },
        {
          "internalType": "uint256",
          "name": "value",
          "type": "uint256"
        }
      ],
      "name": "transfer",
      "outputs": [
        {
          "internalType": "bool",
          "name": "",
          "type": "bool"
        }
      ],
      "stateMutability": "nonpayable",
      "type": "function"
    },
    {
      "inputs": [
        {
          "internalType": "address",
          "name": "from",
          "type": "address"
        },
        {
          "internalType": "address",
          "name": "to",
          "type": "address"
        },
        {
          "internalType": "uint256",
          "name": "value",
          "type": "uint256"
        }
      ],
      "name": "transferFrom",
      "outputs": [
        {
          "internalType": "bool",
          "name": "",
          "type": "bool"
        }
      ],
      "stateMutability": "nonpayable",
      "type": "function"
    },
    {
      "inputs": [
        {
          "internalType": "address",
          "name": "newOwner",
          "type": "address"
        }
      ],
      "name": "transferOwnership",
      "outputs": [],
      "stateMutability": "nonpayable",
      "type": "function"
    },
    {
      "inputs": [],
      "name": "verifier",
      "outputs": [
        {
          "internalType": "address",
          "name": "",
          "type": "address"
        }
      ],
      "stateMutability": "view",
      "type": "function"
    }
  ],
  "bytecode": "0x608060405234801561001057600080fd5b50604051611b9d380380611b9d833981810160405281019061003291906102b3565b336040518060400160405280600f81526020017f487964726f67656e4372656469747300000000000000000000000000000000008152506040518060400160405280600381526020017f484743000000000000000000000000000000000000000000000000000000000081525081600390816100ae9190610530565b5080600490816100be9190610530565b505050600073ffffffffffffffffffffffffffffffffffffffff168173ffffffffffffffffffffffffffffffffffffffff16036101335760006040517f1e4fbdf700000000000000000000000000000000000000000000000000000000815260040161012a9190610611565b60405180910390fd5b6101428161018a60201b60201c565b5080600660006101000a81548173ffffffffffffffffffffffffffffffffffffffff021916908373ffffffffffffffffffffffffffffffffffffffff1602179055505061062c565b6000600560009054906101000a900473ffffffffffffffffffffffffffffffffffffffff16905081600560006101000a81548173ffffffffffffffffffffffffffffffffffffffff021916908373ffffffffffffffffffffffffffffffffffffffff1602179055508173ffffffffffffffffffffffffffffffffffffffff168173ffffffffffffffffffffffffffffffffffffffff167f8be0079c531659141344cd1fd0a4f28419497f9722a3daafe3b4186f6b6457e060405160405180910390a35050565b600080fd5b600073ffffffffffffffffffffffffffffffffffffffff82169050919050565b600061028082610255565b9050919050565b61029081610275565b811461029b57600080fd5b50565b6000815190506102ad81610287565b92915050565b6000602082840312156102c9576102c8610250565b5b60006102d78482850161029e565b91505092915050565b600081519050919050565b7f4e487b7100000000000000000000000000000000000000000000000000000000600052604160045260246000fd5b7f4e487b7100000000000000000000000000000000000000000000000000000000600052602260045260246000fd5b6000600282049050600182168061036157607f821691505b6020821081036103745761037361031a565b5b50919050565b60008190508160005260206000209050919050565b60006020601f8301049050919050565b600082821b905092915050565b6000600883026103dc7fffffffffffffffffffffffffffffffffffffffffffffffffffffffffffffffff8261039f565b6103e6868361039f565b95508019841693508086168417925050509392505050565b6000819050919050565b6000819050919050565b600061042d610428610423846103fe565b610408565b6103fe565b9050919050565b6000819050919050565b61044783610412565b61045b61045382610434565b8484546103ac565b825550505050565b600090565b610470610463565b61047b81848461043e565b505050565b5b8181101561049f57610494600082610468565b600181019050610481565b5050565b601f8211156104e4576104b58161037a565b6104be8461038f565b810160208510156104cd578190505b6104e16104d98561038f565b830182610480565b50505b505050565b600082821c905092915050565b6000610507600019846008026104e9565b1980831691505092915050565b600061052083836104f6565b9150826002028217905092915050565b610539826102e0565b67ffffffffffffffff811115610552576105516102eb565b5b61055c8254610349565b6105678282856104a3565b600060209050601f83116001811461059a5760008415610588578287015190505b6105928582610514565b8655506105fa565b601f1984166105a88661037a565b60005b828110156105d0578489015182556001820191506020850194506020810190506105ab565b868310156105ed57848901516105e9601f8916826104f6565b8355505b6001600288020188555050505b505050505050565b61060b81610275565b82525050565b60006020820190506106266000830184610602565b92915050565b6115628061063b6000396000f3fe608060405234801561001057600080fd5b50600436106101005760003560e01c80635437988d1161009757806395d89b411161006657806395d89b4114610289578063a9059cbb146102a7578063dd62ed3e146102d7578063f2fde38b1461030757610100565b80635437988d1461021557806370a0823114610231578063715018a6146102615780638da5cb5b1461026b57610100565b806323b872dd116100d357806323b872dd1461018d5780632b7ac3f3146101bd578063313ce567146101db57806331b00f7a146101f957610100565b806306fdde0314610105578063095ea7b31461012357806318160ddd146101535780632039e33914610171575b600080fd5b61010d610323565b60405161011a919061111d565b60405180910390f35b61013d600480360381019061013891906111d8565b6103b5565b60405161014a9190611233565b60405180910390f35b61015b6103d8565b604051610168919061125d565b60405180910390f35b61018b60048036038101906101869190611278565b6103e2565b005b6101a760048036038101906101a291906112a5565b61043d565b6040516101b49190611233565b60405180910390f35b6101c561046c565b6040516101d29190611307565b60405180910390f35b6101e3610492565b6040516101f0919061133e565b60405180910390f35b610213600480360381019061020e91906111d8565b61049b565b005b61022f600480360381019061022a9190611359565b610587565b005b61024b60048036038101906102469190611359565b610655565b604051610258919061125d565b60405180910390f35b61026961069d565b005b6102736106b1565b6040516102809190611307565b60405180910390f35b6102916106db565b60405161029e919061111d565b60405180910390f35b6102c160048036038101906102bc91906111d8565b61076d565b6040516102ce9190611233565b60405180910390f35b6102f160048036038101906102ec9190611386565b610790565b6040516102fe919061125d565b60405180910390f35b610321600480360381019061031c9190611359565b610817565b005b606060038054610332906113f5565b80601f016020809104026020016040519081016040528092919081815260200182805461035e906113f5565b80156103ab5780601f10610380576101008083540402835291602001916103ab565b820191906000526020600020905b81548152906001019060200180831161038e57829003601f168201915b5050505050905090565b6000806103c061089d565b90506103cd8185856108a5565b600191505092915050565b6000600254905090565b6103ec33826108b7565b3373ffffffffffffffffffffffffffffffffffffffff167f75ce18f0b9e34e9d622e58c9a8e26936ea62297ebb7ca2ea99e83d0535d7997782604051610432919061125d565b60405180910390a250565b60008061044861089d565b9050610455858285610939565b6104608585856109ce565b60019150509392505050565b600660009054906101000a900473ffffffffffffffffffffffffffffffffffffffff1681565b60006012905090565b600660009054906101000a900473ffffffffffffffffffffffffffffffffffffffff1673ffffffffffffffffffffffffffffffffffffffff163373ffffffffffffffffffffffffffffffffffffffff161461052b576040517f08c379a000000000000000000000000000000000000000000000000000000000815260040161052290611472565b60405180910390fd5b6105358282610ac2565b8173ffffffffffffffffffffffffffffffffffffffff167fba27001eed39081e9d6f521103bc201676a9b4eb7fe868e5e596da78b135126b8260405161057b919061125d565b60405180910390a25050565b61058f610b44565b6000600660009054906101000a900473ffffffffffffffffffffffffffffffffffffffff16905081600660006101000a81548173ffffffffffffffffffffffffffffffffffffffff021916908373ffffffffffffffffffffffffffffffffffffffff1602179055508173ffffffffffffffffffffffffffffffffffffffff168173ffffffffffffffffffffffffffffffffffffffff167f0ddda8be1021ab00f63727c5c5504ad96b163269770a3fe8ac3dd0bcb40208df60405160405180910390a35050565b60008060008373ffffffffffffffffffffffffffffffffffffffff1673ffffffffffffffffffffffffffffffffffffffff168152602001908152602001600020549050919050565b6106a5610b44565b6106af6000610bcb565b565b6000600560009054906101000a900473ffffffffffffffffffffffffffffffffffffffff16905090565b6060600480546106ea906113f5565b80601f0160208091040260200160405190810160405280929190818152602001828054610716906113f5565b80156107635780601f1061073857610100808354040283529160200191610763565b820191906000526020600020905b81548152906001019060200180831161074657829003601f168201915b5050505050905090565b60008061077861089d565b90506107858185856109ce565b600191505092915050565b6000600160008473ffffffffffffffffffffffffffffffffffffffff1673ffffffffffffffffffffffffffffffffffffffff16815260200190815260200160002060008373ffffffffffffffffffffffffffffffffffffffff1673ffffffffffffffffffffffffffffffffffffffff16815260200190815260200160002054905092915050565b61081f610b44565b600073ffffffffffffffffffffffffffffffffffffffff168173ffffffffffffffffffffffffffffffffffffffff16036108915760006040517f1e4fbdf70000000000000000000000000000000000000000000000000000000081526004016108889190611307565b60405180910390fd5b61089a81610bcb565b50565b600033905090565b6108b28383836001610c91565b505050565b600073ffffffffffffffffffffffffffffffffffffffff168273ffffffffffffffffffffffffffffffffffffffff16036109295760006040517f96c6fd1e0000000000000000000000000000000000000000000000000000000081526004016109209190611307565b60405180910390fd5b61093582600083610e68565b5050565b60006109458484610790565b90507fffffffffffffffffffffffffffffffffffffffffffffffffffffffffffffffff8110156109c857818110156109b8578281836040517ffb8f41b20000000000000000000000000000000000000000000000000000000081526004016109af93929190611492565b60405180910390fd5b6109c784848484036000610c91565b5b50505050565b600073ffffffffffffffffffffffffffffffffffffffff168373ffffffffffffffffffffffffffffffffffffffff1603610a405760006040517f96c6fd1e000000000000000000000000000000000000000000000000000000008152600401610a379190611307565b60405180910390fd5b600073ffffffffffffffffffffffffffffffffffffffff168273ffffffffffffffffffffffffffffffffffffffff1603610ab25760006040517fec442f05000000000000000000000000000000000000000000000000000000008152600401610aa99190611307565b60405180910390fd5b610abd838383610e68565b505050565b600073ffffffffffffffffffffffffffffffffffffffff168273ffffffffffffffffffffffffffffffffffffffff1603610b345760006040517fec442f05000000000000000000000000000000000000000000000000000000008152600401610b2b9190611307565b60405180910390fd5b610b4060008383610e68565b5050565b610b4c61089d565b73ffffffffffffffffffffffffffffffffffffffff16610b6a6106b1565b73ffffffffffffffffffffffffffffffffffffffff1614610bc957610b8d61089d565b6040517f118cdaa7000000000000000000000000000000000000000000000000000000008152600401610bc09190611307565b60405180910390fd5b565b6000600560009054906101000a900473ffffffffffffffffffffffffffffffffffffffff16905081600560006101000a81548173ffffffffffffffffffffffffffffffffffffffff021916908373ffffffffffffffffffffffffffffffffffffffff1602179055508173ffffffffffffffffffffffffffffffffffffffff168173ffffffffffffffffffffffffffffffffffffffff167f8be0079c531659141344cd1fd0a4f28419497f9722a3daafe3b4186f6b6457e060405160405180910390a35050565b600073ffffffffffffffffffffffffffffffffffffffff168473ffffffffffffffffffffffffffffffffffffffff1603610d035760006040517fe602df05000000000000000000000000000000000000000000000000000000008152600401610cfa9190611307565b60405180910390fd5b600073ffffffffffffffffffffffffffffffffffffffff168373ffffffffffffffffffffffffffffffffffffffff1603610d755760006040517f94280d62000000000000000000000000000000000000000000000000000000008152600401610d6c9190611307565b60405180910390fd5b81600160008673ffffffffffffffffffffffffffffffffffffffff1673ffffffffffffffffffffffffffffffffffffffff16815260200190815260200160002060008573ffffffffffffffffffffffffffffffffffffffff1673ffffffffffffffffffffffffffffffffffffffff168152602001908152602001600020819055508015610e62578273ffffffffffffffffffffffffffffffffffffffff168473ffffffffffffffffffffffffffffffffffffffff167f8c5be1e5ebec7d5bd14f71427d1e84f3dd0314c0f7b2291e5b200ac8c7c3b92584604051610e59919061125d565b60405180910390a35b50505050565b600073ffffffffffffffffffffffffffffffffffffffff168373ffffffffffffffffffffffffffffffffffffffff1603610eba578060026000828254610eae91906114f8565b92505081905550610f8d565b60008060008573ffffffffffffffffffffffffffffffffffffffff1673ffffffffffffffffffffffffffffffffffffffff16815260200190815260200160002054905081811015610f46578381836040517fe450d38c000000000000000000000000000000000000000000000000000000008152600401610f3d93929190611492565b60405180910390fd5b8181036000808673ffffffffffffffffffffffffffffffffffffffff1673ffffffffffffffffffffffffffffffffffffffff16815260200190815260200160002081905550505b600073ffffffffffffffffffffffffffffffffffffffff168273ffffffffffffffffffffffffffffffffffffffff1603610fd65780600260008282540392505081905550611023565b806000808473ffffffffffffffffffffffffffffffffffffffff1673ffffffffffffffffffffffffffffffffffffffff168152602001908152602001600020600082825401925050819055505b8173ffffffffffffffffffffffffffffffffffffffff168373ffffffffffffffffffffffffffffffffffffffff167fddf252ad1be2c89b69c2b068fc378daa952ba7f163c4a11628f55a4df523b3ef83604051611080919061125d565b60405180910390a3505050565b600081519050919050565b600082825260208201905092915050565b60005b838110156110c75780820151818401526020810190506110ac565b60008484015250505050565b6000601f19601f8301169050919050565b60006110ef8261108d565b6110f98185611098565b93506111098185602086016110a9565b611112816110d3565b840191505092915050565b6000602082019050818103600083015261113781846110e4565b905092915050565b600080fd5b600073ffffffffffffffffffffffffffffffffffffffff82169050919050565b600061116f82611144565b9050919050565b61117f81611164565b811461118a57600080fd5b50565b60008135905061119c81611176565b92915050565b6000819050919050565b6111b5816111a2565b81146111c057600080fd5b50565b6000813590506111d2816111ac565b92915050565b600080604083850312156111ef576111ee61113f565b5b60006111fd8582860161118d565b925050602061120e858286016111c3565b9150509250929050565b60008115159050919050565b61122d81611218565b82525050565b60006020820190506112486000830184611224565b92915050565b611257816111a2565b82525050565b6000602082019050611272600083018461124e565b92915050565b60006020828403121561128e5761128d61113f565b5b600061129c848285016111c3565b91505092915050565b6000806000606084860312156112be576112bd61113f565b5b60006112cc8682870161118d565b93505060206112dd8682870161118d565b92505060406112ee868287016111c3565b9150509250925092565b61130181611164565b82525050565b600060208201905061131c60008301846112f8565b92915050565b600060ff82169050919050565b61133881611322565b82525050565b6000602082019050611353600083018461132f565b92915050565b60006020828403121561136f5761136e61113f565b5b600061137d8482850161118d565b91505092915050565b6000806040838503121561139d5761139c61113f565b5b60006113ab8582860161118d565b92505060206113bc8582860161118d565b9150509250929050565b7f4e487b7100000000000000000000000000000000000000000000000000000000600052602260045260246000fd5b6000600282049050600182168061140d57607f821691505b6020821081036114205761141f6113c6565b5b50919050565b7f4f6e6c792076657269666965722063616e206973737565206372656469747300600082015250565b600061145c601f83611098565b915061146782611426565b602082019050919050565b6000602082019050818103600083015261148b8161144f565b9050919050565b60006060820190506114a760008301866112f8565b6114b4602083018561124e565b6114c1604083018461124e565b949350505050565b7f4e487b7100000000000000000000000000000000000000000000000000000000600052601160045260246000fd5b6000611503826111a2565b915061150e836111a2565b9250828201905080821115611526576115256114c9565b5b9291505056fea264697066735822122040de3c69c2390610cb3a514d18f81c34148e6d3149b25195c5172cc23fd8959a64736f6c634300081c0033",
  "linkReferences": {},
  "deployedLinkReferences": {}
}