{
  "_format": "hh-sol-artifact-1",
  "contractName": "TradeMarketplace",
  "sourceName": "contracts/TradeMarketplace.sol",
  "abi": [
    {
      "inputs": [
        {
          "internalType": "address",
          "name": "_ghc",
          "type": "address"
        }
      ],
      "stateMutability": "nonpayable",
      "type": "constructor"
    },
    {
      "anonymous": false,
      "inputs": [
        {
          "indexed": true,
          "internalType": "uint256",
          "name": "orderId",
          "type": "uint256"
        },
        {
          "indexed": true,
          "internalType": "address",
          "name": "buyer",
          "type": "address"
        },
        {
          "indexed": false,
          "internalType": "uint256",
          "name": "amount",
          "type": "uint256"
        },
        {
          "indexed": false,
          "internalType": "uint256",
          "name": "totalPrice",
          "type": "uint256"
        }
      ],
      "name": "OrderFilled",
      "type": "event"
    },
    {
      "anonymous": false,
      "inputs": [
        {
          "indexed": true,
          "internalType": "uint256",
          "name": "orderId",
          "type": "uint256"
        },
        {
          "indexed": true,
          "internalType": "address",
          "name": "seller",
          "type": "address"
        },
        {
          "indexed": false,
          "internalType": "uint256",
          "name": "amount",
          "type": "uint256"
        },
        {
          "indexed": false,
          "internalType": "uint256",
          "name": "price",
          "type": "uint256"
        }
      ],
      "name": "OrderPlaced",
      "type": "event"
    },
    {
      "inputs": [
        {
          "internalType": "uint256",
          "name": "orderId",
          "type": "uint256"
        }
      ],
      "name": "fillOrder",
      "outputs": [],
      "stateMutability": "payable",
      "type": "function"
    },
    {
      "inputs": [],
      "name": "ghc",
      "outputs": [
        {
          "internalType": "contract HydrogenCredits",
          "name": "",
          "type": "address"
        }
      ],
      "stateMutability": "view",
      "type": "function"
    },
    {
      "inputs": [],
      "name": "nextOrderId",
      "outputs": [
        {
          "internalType": "uint256",
          "name": "",
          "type": "uint256"
        }
      ],
      "stateMutability": "view",
      "type": "function"
    },
    {
      "inputs": [
        {
          "internalType": "uint256",
          "name": "",
          "type": "uint256"
        }
      ],
      "name": "orders",
      "outputs": [
        {
          "internalType": "address",
          "name": "seller",
          "type": "address"
        },
        {
          "internalType": "uint256",
          "name": "amount",
          "type": "uint256"
        },
        {
          "internalType": "uint256",
          "name": "price",
          "type": "uint256"
        },
        {
          "internalType": "bool",
          "name": "active",
          "type": "bool"
        }
      ],
      "stateMutability": "view",
      "type": "function"
    },
    {
      "inputs": [
        {
          "internalType": "uint256",
          "name": "amount",
          "type": "uint256"
        },
        {
          "internalType": "uint256",
          "name": "price",
          "type": "uint256"
        }
      ],
      "name": "placeOrder",
      "outputs": [],
      "stateMutability": "nonpayable",
      "type": "function"
    }
  ],
  "bytecode": "0x608060405234801561001057600080fd5b50604051611009380380611009833981810160405281019061003291906100e3565b806000806101000a81548173ffffffffffffffffffffffffffffffffffffffff021916908373ffffffffffffffffffffffffffffffffffffffff160217905550600060018190555050610110565b600080fd5b600073ffffffffffffffffffffffffffffffffffffffff82169050919050565b60006100b082610085565b9050919050565b6100c0816100a5565b81146100cb57600080fd5b50565b6000815190506100dd816100b7565b92915050565b6000602082840312156100f9576100f8610080565b5b6000610107848285016100ce565b91505092915050565b610eea8061011f6000396000f3fe60806040526004361061004a5760003560e01c806311c6cc971461004f5780632a58b3301461007a57806367b830ad146100a5578063843f61e2146100c1578063a85c38ef146100ea575b600080fd5b34801561005b57600080fd5b5061006461012a565b604051610071919061083b565b60405180910390f35b34801561008657600080fd5b5061008f61014e565b60405161009c919061086f565b60405180910390f35b6100bf60048036038101906100ba91906108bb565b610154565b005b3480156100cd57600080fd5b506100e860048036038101906100e391906108e8565b6103d9565b005b3480156100f657600080fd5b50610111600480360381019061010c91906108bb565b61075f565b6040516101219493929190610964565b60405180910390f35b60008054906101000a900473ffffffffffffffffffffffffffffffffffffffff1681565b60015481565b60006002600083815260200190815260200160002090508060030160009054906101000a900460ff166101bc576040517f08c379a00000000000000000000000000000000000000000000000000000000081526004016101b390610a06565b60405180910390fd5b6000816002015482600101546101d29190610a55565b9050803414610216576040517f08c379a000000000000000000000000000000000000000000000000000000000815260040161020d90610ae3565b60405180910390fd5b60008260030160006101000a81548160ff02191690831515021790555060008054906101000a900473ffffffffffffffffffffffffffffffffffffffff1673ffffffffffffffffffffffffffffffffffffffff1663a9059cbb3384600101546040518363ffffffff1660e01b8152600401610292929190610b03565b6020604051808303816000875af11580156102b1573d6000803e3d6000fd5b505050506040513d601f19601f820116820180604052508101906102d59190610b58565b610314576040517f08c379a000000000000000000000000000000000000000000000000000000000815260040161030b90610bd1565b60405180910390fd5b8160000160009054906101000a900473ffffffffffffffffffffffffffffffffffffffff1673ffffffffffffffffffffffffffffffffffffffff166108fc349081150290604051600060405180830381858888f1935050505015801561037e573d6000803e3d6000fd5b503373ffffffffffffffffffffffffffffffffffffffff16837f36a54e61f475a84cd4a5c3b403be29e6101b05ec843b61fb97c3e123ff59b3f48460010154346040516103cc929190610bf1565b60405180910390a3505050565b6000821161041c576040517f08c379a000000000000000000000000000000000000000000000000000000000815260040161041390610c66565b60405180910390fd5b6000811161045f576040517f08c379a000000000000000000000000000000000000000000000000000000000815260040161045690610cd2565b60405180910390fd5b8160008054906101000a900473ffffffffffffffffffffffffffffffffffffffff1673ffffffffffffffffffffffffffffffffffffffff1663dd62ed3e33306040518363ffffffff1660e01b81526004016104bb929190610cf2565b602060405180830381865afa1580156104d8573d6000803e3d6000fd5b505050506040513d601f19601f820116820180604052508101906104fc9190610d30565b101561053d576040517f08c379a000000000000000000000000000000000000000000000000000000000815260040161053490610da9565b60405180910390fd5b60008060009054906101000a900473ffffffffffffffffffffffffffffffffffffffff1673ffffffffffffffffffffffffffffffffffffffff166323b872dd3330866040518463ffffffff1660e01b815260040161059d93929190610dc9565b6020604051808303816000875af11580156105bc573d6000803e3d6000fd5b505050506040513d601f19601f820116820180604052508101906105e09190610b58565b905080610622576040517f08c379a000000000000000000000000000000000000000000000000000000000815260040161061990610e4c565b60405180910390fd5b60405180608001604052803373ffffffffffffffffffffffffffffffffffffffff1681526020018481526020018381526020016001151581525060026000600154815260200190815260200160002060008201518160000160006101000a81548173ffffffffffffffffffffffffffffffffffffffff021916908373ffffffffffffffffffffffffffffffffffffffff160217905550602082015181600101556040820151816002015560608201518160030160006101000a81548160ff0219169083151502179055509050503373ffffffffffffffffffffffffffffffffffffffff166001547f59827a9898740dc87f0e01c9f27ae034611bb083f06d7eb3efaef27336e3c4dd858560405161073a929190610bf1565b60405180910390a36001600081548092919061075590610e6c565b9190505550505050565b60026020528060005260406000206000915090508060000160009054906101000a900473ffffffffffffffffffffffffffffffffffffffff16908060010154908060020154908060030160009054906101000a900460ff16905084565b600073ffffffffffffffffffffffffffffffffffffffff82169050919050565b6000819050919050565b60006108016107fc6107f7846107bc565b6107dc565b6107bc565b9050919050565b6000610813826107e6565b9050919050565b600061082582610808565b9050919050565b6108358161081a565b82525050565b6000602082019050610850600083018461082c565b92915050565b6000819050919050565b61086981610856565b82525050565b60006020820190506108846000830184610860565b92915050565b600080fd5b61089881610856565b81146108a357600080fd5b50565b6000813590506108b58161088f565b92915050565b6000602082840312156108d1576108d061088a565b5b60006108df848285016108a6565b91505092915050565b600080604083850312156108ff576108fe61088a565b5b600061090d858286016108a6565b925050602061091e858286016108a6565b9150509250929050565b6000610933826107bc565b9050919050565b61094381610928565b82525050565b60008115159050919050565b61095e81610949565b82525050565b6000608082019050610979600083018761093a565b6109866020830186610860565b6109936040830185610860565b6109a06060830184610955565b95945050505050565b600082825260208201905092915050565b7f4f7264657220696e616374697665000000000000000000000000000000000000600082015250565b60006109f0600e836109a9565b91506109fb826109ba565b602082019050919050565b60006020820190508181036000830152610a1f816109e3565b9050919050565b7f4e487b7100000000000000000000000000000000000000000000000000000000600052601160045260246000fd5b6000610a6082610856565b9150610a6b83610856565b9250828202610a7981610856565b91508282048414831517610a9057610a8f610a26565b5b5092915050565b7f496e636f7272656374204554482073656e740000000000000000000000000000600082015250565b6000610acd6012836109a9565b9150610ad882610a97565b602082019050919050565b60006020820190508181036000830152610afc81610ac0565b9050919050565b6000604082019050610b18600083018561093a565b610b256020830184610860565b9392505050565b610b3581610949565b8114610b4057600080fd5b50565b600081519050610b5281610b2c565b92915050565b600060208284031215610b6e57610b6d61088a565b5b6000610b7c84828501610b43565b91505092915050565b7f7472616e73666572206661696c65640000000000000000000000000000000000600082015250565b6000610bbb600f836109a9565b9150610bc682610b85565b602082019050919050565b60006020820190508181036000830152610bea81610bae565b9050919050565b6000604082019050610c066000830185610860565b610c136020830184610860565b9392505050565b7f616d6f756e74203e203000000000000000000000000000000000000000000000600082015250565b6000610c50600a836109a9565b9150610c5b82610c1a565b602082019050919050565b60006020820190508181036000830152610c7f81610c43565b9050919050565b7f7072696365203e20300000000000000000000000000000000000000000000000600082015250565b6000610cbc6009836109a9565b9150610cc782610c86565b602082019050919050565b60006020820190508181036000830152610ceb81610caf565b9050919050565b6000604082019050610d07600083018561093a565b610d14602083018461093a565b9392505050565b600081519050610d2a8161088f565b92915050565b600060208284031215610d4657610d4561088a565b5b6000610d5484828501610d1b565b91505092915050565b7f496e73756666696369656e7420616c6c6f77616e636500000000000000000000600082015250565b6000610d936016836109a9565b9150610d9e82610d5d565b602082019050919050565b60006020820190508181036000830152610dc281610d86565b9050919050565b6000606082019050610dde600083018661093a565b610deb602083018561093a565b610df86040830184610860565b949350505050565b7f7472616e7366657246726f6d206661696c656400000000000000000000000000600082015250565b6000610e366013836109a9565b9150610e4182610e00565b602082019050919050565b60006020820190508181036000830152610e6581610e29565b9050919050565b6000610e7782610856565b91507fffffffffffffffffffffffffffffffffffffffffffffffffffffffffffffffff8203610ea957610ea8610a26565b5b60018201905091905056fea26469706673582212200b2595b276ee60a21fac8646683a653d892cf30fe46dacc187ee7e77aba7caf364736f6c634300081c0033",
  "linkReferences": {},
  "deployedLinkReferences": {}
}