{
  "_format": "hh-sol-artifact-1",
  "contractName": "Verification",
  "sourceName": "contracts/Verification.sol",
  "abi": [
    {
      "inputs": [
        {
          "internalType": "address",
          "name": "_ghc",
          "type": "address"
        },
        {
          "internalType": "address",
          "name": "_oracle",
          "type": "address"
        }
      ],
      "stateMutability": "nonpayable",
      "type": "constructor"
    },
    {
      "inputs": [],
      "name": "ghc",
      "outputs": [
        {
          "internalType": "contract HydrogenCredits",
          "name": "",
          "type": "address"
        }
      ],
      "stateMutability": "view",
      "type": "function"
    },
    {
      "inputs": [],
      "name": "oracle",
      "outputs": [
        {
          "internalType": "address",
          "name": "",
          "type": "address"
        }
      ],
      "stateMutability": "view",
      "type": "function"
    },
    {
      "inputs": [
        {
          "internalType": "address",
          "name": "producer",
          "type": "address"
        },
        {
          "internalType": "uint256",
          "name": "amount",
          "type": "uint256"
        }
      ],
      "name": "verifyProduction",
      "outputs": [],
      "stateMutability": "nonpayable",
      "type": "function"
    }
  ],
  "bytecode": "0x608060405234801561001057600080fd5b506040516105dd3803806105dd8339818101604052810190610032919061011d565b816000806101000a81548173ffffffffffffffffffffffffffffffffffffffff021916908373ffffffffffffffffffffffffffffffffffffffff16021790555080600160006101000a81548173ffffffffffffffffffffffffffffffffffffffff021916908373ffffffffffffffffffffffffffffffffffffffff160217905550505061015d565b600080fd5b600073ffffffffffffffffffffffffffffffffffffffff82169050919050565b60006100ea826100bf565b9050919050565b6100fa816100df565b811461010557600080fd5b50565b600081519050610117816100f1565b92915050565b60008060408385031215610134576101336100ba565b5b600061014285828601610108565b925050602061015385828601610108565b9150509250929050565b6104718061016c6000396000f3fe608060405234801561001057600080fd5b50600436106100415760003560e01c806311c6cc9714610046578063342ec5d7146100645780637dc0d1d014610080575b600080fd5b61004e61009e565b60405161005b9190610288565b60405180910390f35b61007e6004803603810190610079919061031c565b6100c2565b005b6100886101e3565b604051610095919061036b565b60405180910390f35b60008054906101000a900473ffffffffffffffffffffffffffffffffffffffff1681565b600160009054906101000a900473ffffffffffffffffffffffffffffffffffffffff1673ffffffffffffffffffffffffffffffffffffffff163373ffffffffffffffffffffffffffffffffffffffff1614610152576040517f08c379a0000000000000000000000000000000000000000000000000000000008152600401610149906103e3565b60405180910390fd5b60008054906101000a900473ffffffffffffffffffffffffffffffffffffffff1673ffffffffffffffffffffffffffffffffffffffff166331b00f7a83836040518363ffffffff1660e01b81526004016101ad929190610412565b600060405180830381600087803b1580156101c757600080fd5b505af11580156101db573d6000803e3d6000fd5b505050505050565b600160009054906101000a900473ffffffffffffffffffffffffffffffffffffffff1681565b600073ffffffffffffffffffffffffffffffffffffffff82169050919050565b6000819050919050565b600061024e61024961024484610209565b610229565b610209565b9050919050565b600061026082610233565b9050919050565b600061027282610255565b9050919050565b61028281610267565b82525050565b600060208201905061029d6000830184610279565b92915050565b600080fd5b60006102b382610209565b9050919050565b6102c3816102a8565b81146102ce57600080fd5b50565b6000813590506102e0816102ba565b92915050565b6000819050919050565b6102f9816102e6565b811461030457600080fd5b50565b600081359050610316816102f0565b92915050565b60008060408385031215610333576103326102a3565b5b6000610341858286016102d1565b925050602061035285828601610307565b9150509250929050565b610365816102a8565b82525050565b6000602082019050610380600083018461035c565b92915050565b600082825260208201905092915050565b7f4f6e6c79206f7261636c652063616e2076657269667900000000000000000000600082015250565b60006103cd601683610386565b91506103d882610397565b602082019050919050565b600060208201905081810360008301526103fc816103c0565b9050919050565b61040c816102e6565b82525050565b6000604082019050610427600083018561035c565b6104346020830184610403565b939250505056fea26469706673582212201bfb3ccb7ac92efc3e25b36208f698da122425956130995f65d50fcfcebf2b7964736f6c634300081c0033",
  "linkReferences": {},
  "deployedLinkReferences": {}
}